{
    "contractName": "FetchFromArray",
    "abi": [
        {
            "inputs": [],
            "stateMutability": "nonpayable",
            "type": "constructor"
        },
        {
            "anonymous": false,
            "inputs": [
                {
                    "indexed": true,
                    "internalType": "bytes32",
                    "name": "id",
                    "type": "bytes32"
                }
            ],
            "name": "ChainlinkCancelled",
            "type": "event"
        },
        {
            "anonymous": false,
            "inputs": [
                {
                    "indexed": true,
                    "internalType": "bytes32",
                    "name": "id",
                    "type": "bytes32"
                }
            ],
            "name": "ChainlinkFulfilled",
            "type": "event"
        },
        {
            "anonymous": false,
            "inputs": [
                {
                    "indexed": true,
                    "internalType": "bytes32",
                    "name": "id",
                    "type": "bytes32"
                }
            ],
            "name": "ChainlinkRequested",
            "type": "event"
        },
        {
            "anonymous": false,
            "inputs": [
                {
                    "indexed": true,
                    "internalType": "address",
                    "name": "from",
                    "type": "address"
                },
                {
                    "indexed": true,
                    "internalType": "address",
                    "name": "to",
                    "type": "address"
                }
            ],
            "name": "OwnershipTransferRequested",
            "type": "event"
        },
        {
            "anonymous": false,
            "inputs": [
                {
                    "indexed": true,
                    "internalType": "address",
                    "name": "from",
                    "type": "address"
                },
                {
                    "indexed": true,
                    "internalType": "address",
                    "name": "to",
                    "type": "address"
                }
            ],
            "name": "OwnershipTransferred",
            "type": "event"
        },
        {
            "anonymous": false,
            "inputs": [
                {
                    "indexed": true,
                    "internalType": "bytes32",
                    "name": "requestId",
                    "type": "bytes32"
                },
                {
                    "indexed": false,
                    "internalType": "string",
                    "name": "id",
                    "type": "string"
                }
            ],
            "name": "RequestFirstId",
            "type": "event"
        },
        {
            "inputs": [],
            "name": "acceptOwnership",
            "outputs": [],
            "stateMutability": "nonpayable",
            "type": "function"
        },
        {
            "inputs": [
                {
                    "internalType": "bytes32",
                    "name": "_requestId",
                    "type": "bytes32"
                },
                {
                    "internalType": "string",
                    "name": "_id",
                    "type": "string"
                }
            ],
            "name": "fulfill",
            "outputs": [],
            "stateMutability": "nonpayable",
            "type": "function"
        },
        {
            "inputs": [],
            "name": "id",
            "outputs": [
                {
                    "internalType": "string",
                    "name": "",
                    "type": "string"
                }
            ],
            "stateMutability": "view",
            "type": "function"
        },
        {
            "inputs": [],
            "name": "owner",
            "outputs": [
                {
                    "internalType": "address",
                    "name": "",
                    "type": "address"
                }
            ],
            "stateMutability": "view",
            "type": "function"
        },
        {
            "inputs": [],
            "name": "requestFirstId",
            "outputs": [
                {
                    "components": [
                        {
                            "internalType": "bytes32",
                            "name": "id",
                            "type": "bytes32"
                        },
                        {
                            "components": [
                                {
                                    "internalType": "bytes32",
                                    "name": "id",
                                    "type": "bytes32"
                                },
                                {
                                    "internalType": "address",
                                    "name": "callbackAddress",
                                    "type": "address"
                                },
                                {
                                    "internalType": "bytes4",
                                    "name": "callbackFunctionId",
                                    "type": "bytes4"
                                },
                                {
                                    "internalType": "uint256",
                                    "name": "nonce",
                                    "type": "uint256"
                                },
                                {
                                    "components": [
                                        {
                                            "internalType": "bytes",
                                            "name": "buf",
                                            "type": "bytes"
                                        },
                                        {
                                            "internalType": "uint256",
                                            "name": "capacity",
                                            "type": "uint256"
                                        }
                                    ],
                                    "internalType": "struct BufferChainlink.buffer",
                                    "name": "buf",
                                    "type": "tuple"
                                }
                            ],
                            "internalType": "struct Chainlink.Request",
                            "name": "request",
                            "type": "tuple"
                        },
                        {
                            "internalType": "uint256",
                            "name": "returnFee",
                            "type": "uint256"
                        }
                    ],
                    "internalType": "struct FetchFromArray.Response",
                    "name": "",
                    "type": "tuple"
                }
            ],
            "stateMutability": "nonpayable",
            "type": "function"
        },
        {
            "inputs": [
                {
                    "internalType": "address",
                    "name": "to",
                    "type": "address"
                }
            ],
            "name": "transferOwnership",
            "outputs": [],
            "stateMutability": "nonpayable",
            "type": "function"
        },
        {
            "inputs": [],
            "name": "withdrawLink",
            "outputs": [],
            "stateMutability": "nonpayable",
            "type": "function"
        }
    ],
    "bytecode": "608060405260016004553480156200001657600080fd5b5033806000816200006e5760405162461bcd60e51b815260206004820152601860248201527f43616e6e6f7420736574206f776e657220746f207a65726f000000000000000060448201526064015b60405180910390fd5b600680546001600160a01b0319166001600160a01b0384811691909117909155811615620000a157620000a1816200013f565b505050620000c973779877a7b0d9e8603169ddbd7836e478b4624789620001eb60201b60201c565b600380546001600160a01b031916736090149792daaee9d1d568c9f9a6f6b46aa29efd1790557f3764383061363338366566353433613361626235323831376636373037653362600955600a6200012a670de0b6b3a764000060016200020d565b62000136919062000239565b600a556200025c565b336001600160a01b03821603620001995760405162461bcd60e51b815260206004820152601760248201527f43616e6e6f74207472616e7366657220746f2073656c66000000000000000000604482015260640162000065565b600780546001600160a01b0319166001600160a01b03838116918217909255600654604051919216907fed8889f560326eb138920d842192f0eb3dd22b4f139c87a2c57538e05bae127890600090a350565b600280546001600160a01b0319166001600160a01b0392909216919091179055565b80820281158282048414176200023357634e487b7160e01b600052601160045260246000fd5b92915050565b6000826200025757634e487b7160e01b600052601260045260246000fd5b500490565b61135d806200026c6000396000f3fe608060405234801561001057600080fd5b506004361061007d5760003560e01c80638da5cb5b1161005b5780638da5cb5b146100bd5780638dc654a2146100d8578063af640d0f146100e0578063f2fde38b146100f557600080fd5b806309323a6a1461008257806337441996146100a057806379ba5097146100b5575b600080fd5b61008a610108565b6040516100979190610dc0565b60405180910390f35b6100b36100ae366004610e6e565b6101e9565b005b6100b36102f4565b6006546040516001600160a01b039091168152602001610097565b6100b36103a2565b6100e86104e6565b6040516100979190610f29565b6100b3610103366004610f3c565b610574565b610110610d17565b600061012660095430633744199660e01b610585565b90506101686040518060400160405280600381526020016219d95d60ea1b8152506040518060800160405280604a81526020016112de604a91398391906105aa565b6101b5604051806040016040528060048152602001630e0c2e8d60e31b815250604051806040016040528060048152602001630c0b1a5960e21b815250836105aa9092919063ffffffff16565b60006101c382600a546105cd565b90506040518060600160405280828152602001838152602001600a548152509250505090565b60008281526005602052604090205482906001600160a01b031633146102675760405162461bcd60e51b815260206004820152602860248201527f536f75726365206d75737420626520746865206f7261636c65206f6620746865604482015267081c995c5d595cdd60c21b60648201526084015b60405180910390fd5b60008181526005602052604080822080546001600160a01b03191690555182917f7cc135e0cebb02c3480ae5d74d377283180a2601f8f644edf7987b009316c63a91a2827f5b72487f892feba565865a27f191da8fb1e852651bd966bfb0a41fc272c54aea836040516102da9190610f29565b60405180910390a260086102ee8382610fee565b50505050565b6007546001600160a01b031633146103475760405162461bcd60e51b815260206004820152601660248201527526bab9ba10313290383937b837b9b2b21037bbb732b960511b604482015260640161025e565b600680546001600160a01b0319808216339081179093556007805490911690556040516001600160a01b03909116919082907f8be0079c531659141344cd1fd0a4f28419497f9722a3daafe3b4186f6b6457e090600090a350565b6103aa6105f0565b60006103be6002546001600160a01b031690565b6040516370a0823160e01b81523060048201529091506001600160a01b0382169063a9059cbb90339083906370a0823190602401602060405180830381865afa15801561040f573d6000803e3d6000fd5b505050506040513d601f19601f8201168201806040525081019061043391906110ae565b6040516001600160e01b031960e085901b1681526001600160a01b03909216600483015260248201526044016020604051808303816000875af115801561047e573d6000803e3d6000fd5b505050506040513d601f19601f820116820180604052508101906104a291906110c7565b6104e35760405162461bcd60e51b81526020600482015260126024820152712ab730b13632903a37903a3930b739b332b960711b604482015260640161025e565b50565b600880546104f390610f6c565b80601f016020809104026020016040519081016040528092919081815260200182805461051f90610f6c565b801561056c5780601f106105415761010080835404028352916020019161056c565b820191906000526020600020905b81548152906001019060200180831161054f57829003601f168201915b505050505081565b61057c6105f0565b6104e381610645565b61058d610d3f565b610595610d3f565b6105a1818686866106ef565b95945050505050565b60808301516105b99083610735565b60808301516105c89082610735565b505050565b6003546000906105e7906001600160a01b0316848461074c565b90505b92915050565b6006546001600160a01b031633146106435760405162461bcd60e51b815260206004820152601660248201527527b7363c9031b0b63630b1363290313c9037bbb732b960511b604482015260640161025e565b565b336001600160a01b0382160361069d5760405162461bcd60e51b815260206004820152601760248201527f43616e6e6f74207472616e7366657220746f2073656c66000000000000000000604482015260640161025e565b600780546001600160a01b0319166001600160a01b03838116918217909255600654604051919216907fed8889f560326eb138920d842192f0eb3dd22b4f139c87a2c57538e05bae127890600090a350565b6106f7610d3f565b61070785608001516101006107df565b50508284526001600160a01b03821660208501526001600160e01b031981166040850152835b949350505050565b6107428260038351610844565b6105c88282610953565b60045460009061075d8160016110ff565b600455835160408086015160808701515191516000936320214ca360e11b936107959386938493923092918a91600191602401611112565b60408051601f198184030181529190526020810180516001600160e01b03166001600160e01b03199093169290921790915290506107d58683868461097a565b9695505050505050565b6040805180820190915260608152600060208201526107ff60208361117a565b156108275761080f60208361117a565b61081a90602061119c565b61082490836110ff565b91505b506020828101829052604080518085526000815290920101905290565b60178167ffffffffffffffff1611610869576102ee8360e0600585901b168317610ad8565b60ff8167ffffffffffffffff16116108a757610890836018611fe0600586901b1617610ad8565b506102ee8367ffffffffffffffff83166001610afd565b61ffff8167ffffffffffffffff16116108e6576108cf836019611fe0600586901b1617610ad8565b506102ee8367ffffffffffffffff83166002610afd565b63ffffffff8167ffffffffffffffff16116109275761091083601a611fe0600586901b1617610ad8565b506102ee8367ffffffffffffffff83166004610afd565b61093c83601b611fe0600586901b1617610ad8565b506102ee8367ffffffffffffffff83166008610afd565b6040805180820190915260608152600060208201526105e783846000015151848551610b23565b6040516bffffffffffffffffffffffff193060601b1660208201526034810184905260009060540160408051808303601f1901815282825280516020918201206000818152600590925291812080546001600160a01b0319166001600160a01b038a1617905590925082917fb5e6e01e79f91267dc17b4e6314d5d4d03593d2ceee0fbb452b750bd70ea5af99190a2600254604051630200057560e51b81526001600160a01b0390911690634000aea090610a3d908890879087906004016111af565b6020604051808303816000875af1158015610a5c573d6000803e3d6000fd5b505050506040513d601f19601f82011682018060405250810190610a8091906110c7565b61072d5760405162461bcd60e51b815260206004820152602360248201527f756e61626c6520746f207472616e73666572416e6443616c6c20746f206f7261604482015262636c6560e81b606482015260840161025e565b6040805180820190915260608152600060208201526105e78384600001515184610c0d565b60408051808201909152606081526000602082015261072d848560000151518585610c68565b6040805180820190915260608152600060208201528251821115610b4657600080fd5b6020850151610b5583866110ff565b1115610b8857610b8885610b7887602001518786610b7391906110ff565b610ce9565b610b839060026111d6565b610d00565b600080865180518760208301019350808887011115610ba75787860182525b505050602084015b60208410610be75780518252610bc66020836110ff565b9150610bd36020826110ff565b9050610be060208561119c565b9350610baf565b51815160001960208690036101000a019081169019919091161790525083949350505050565b60408051808201909152606081526000602082015283602001518310610c4257610c428485602001516002610b8391906111d6565b8351805160208583010184815350808503610c5e576001810182525b5093949350505050565b6040805180820190915260608152600060208201526020850151610c8c85846110ff565b1115610ca057610ca085610b7886856110ff565b60006001610cb0846101006112d1565b610cba919061119c565b9050855183868201018583198251161781525080518487011115610cde5783860181525b509495945050505050565b600081831115610cfa5750816105ea565b50919050565b8151610d0c83836107df565b506102ee8382610953565b60408051606081019091526000815260208101610d32610d3f565b8152602001600081525090565b6040805160a0810182526000808252602080830182905282840182905260608084018390528451808601909552845283015290608082015290565b6000815180845260005b81811015610da057602081850181015186830182015201610d84565b506000602082860101526020601f19601f83011685010191505092915050565b602081528151602082015260006020830151606060408401528051608084015260018060a01b0360208201511660a084015263ffffffff60e01b60408201511660c0840152606081015160e08401526080810151905060a061010084015280516040610120850152610e36610160850182610d7a565b9050602082015161014085015260408501516060850152809250505092915050565b634e487b7160e01b600052604160045260246000fd5b60008060408385031215610e8157600080fd5b82359150602083013567ffffffffffffffff80821115610ea057600080fd5b818501915085601f830112610eb457600080fd5b813581811115610ec657610ec6610e58565b604051601f8201601f19908116603f01168101908382118183101715610eee57610eee610e58565b81604052828152886020848701011115610f0757600080fd5b8260208601602083013760006020848301015280955050505050509250929050565b6020815260006105e76020830184610d7a565b600060208284031215610f4e57600080fd5b81356001600160a01b0381168114610f6557600080fd5b9392505050565b600181811c90821680610f8057607f821691505b602082108103610cfa57634e487b7160e01b600052602260045260246000fd5b601f8211156105c857600081815260208120601f850160051c81016020861015610fc75750805b601f850160051c820191505b81811015610fe657828155600101610fd3565b505050505050565b815167ffffffffffffffff81111561100857611008610e58565b61101c816110168454610f6c565b84610fa0565b602080601f83116001811461105157600084156110395750858301515b600019600386901b1c1916600185901b178555610fe6565b600085815260208120601f198616915b8281101561108057888601518255948401946001909101908401611061565b508582101561109e5787850151600019600388901b60f8161c191681555b5050505050600190811b01905550565b6000602082840312156110c057600080fd5b5051919050565b6000602082840312156110d957600080fd5b81518015158114610f6557600080fd5b634e487b7160e01b600052601160045260246000fd5b808201808211156105ea576105ea6110e9565b6001600160a01b0389811682526020820189905260408201889052861660608201526001600160e01b03198516608082015260a0810184905260c0810183905261010060e0820181905260009061116b83820185610d7a565b9b9a5050505050505050505050565b60008261119757634e487b7160e01b600052601260045260246000fd5b500690565b818103818111156105ea576105ea6110e9565b60018060a01b03841681528260208201526060604082015260006105a16060830184610d7a565b80820281158282048414176105ea576105ea6110e9565b600181815b8085111561122857816000190482111561120e5761120e6110e9565b8085161561121b57918102915b93841c93908002906111f2565b509250929050565b60008261123f575060016105ea565b8161124c575060006105ea565b8160018114611262576002811461126c57611288565b60019150506105ea565b60ff84111561127d5761127d6110e9565b50506001821b6105ea565b5060208310610133831016604e8410600b84101617156112ab575081810a6105ea565b6112b583836111ed565b80600019048211156112c9576112c96110e9565b029392505050565b60006105e7838361123056fe68747470733a2f2f6170692e636f696e6765636b6f2e636f6d2f6170692f76332f636f696e732f6d61726b6574733f76735f63757272656e63793d62726c267065725f706167653d3130a2646970667358221220d05d9e98cf9a883ab50082f15a1974e6478985afec345c9f1e36c62bf99fda3864736f6c63430008130033",
    "sourcePath": "/Users/marcelofeitoza/development/hackathon-tesouro-nacional-serpro-2023/ethereum/contracts/APIConsumption.sol",
    "compiler": {
        "name": "solc",
        "version": "0.8.19+commit.7dd6d404"
    },
    "functionHashes": {
        "acceptOwnership()": "79ba5097",
        "fulfill(bytes32,string)": "37441996",
        "id()": "af640d0f",
        "owner()": "8da5cb5b",
        "requestFirstId()": "09323a6a",
        "transferOwnership(address)": "f2fde38b",
        "withdrawLink()": "8dc654a2"
    },
    "gasEstimates": {
        "creation": {
            "codeDepositCost": "991400",
            "executionCost": "infinite",
            "totalCost": "infinite"
        },
        "external": {
            "acceptOwnership()": "52353",
            "fulfill(bytes32,string)": "infinite",
            "id()": "infinite",
            "owner()": "2301",
            "requestFirstId()": "infinite",
            "transferOwnership(address)": "30467",
            "withdrawLink()": "infinite"
        }
    }
}